:100000000C9456000C9433010C9473000C94730000
:100010000C9473000C9473000C9473000C94730094
:100020000C9473000C9473000C9473000C94730084
:100030000C9473000C9473000C9473000C94730074
:100040000C9473000C9473000C9473000C94730064
:100050000C9408010C9473000C9473000C947300BE
:100060000C9473000C9473000C9473000C94730044
:100070000C9473000C9473000C9473000C94730034
:100080000C94CA000C9473000C9473000C947300CD
:100090000C9473000C9473000C9473000C94730014
:1000A0000C9473000C9473000C94730011241FBE05
:1000B000CFEFDAE0DEBFCDBF11E0A0E0B1E0ECE6CB
:1000C000F3E002C005900D92A630B107D9F724E005
:1000D000A6E0B1E001C01D92A031B207E1F70E9495
:1000E00064010C94B4010C940000FC01DC01139633
:1000F000BC016A5F7F4F48E050E020E807C05B9A90
:100100005D9A5D9826954150510951F09C9192233A
:10011000B1F75B985D9A5D98269541505109B1F70A
:100120001196A617B70739F780E044E050E020E1C8
:1001300007C05B9A5D9A5D98220F4150510951F0BA
:1001400090819223B1F75B985D9A5D98220F4150A0
:100150005109B1F744E050E021E009C05B9A8230D8
:1001600081F05D9A5D98220F4150510929F09081EC
:100170009223A1F75B98F3CF8F5F31968330A9F676
:100180000895283071F72F9A8F9A5D9A5D988F980D
:100190002F9808951F920F920FB60F9211242F934C
:1001A0003F934F935F936F937F938F939F93AF93FF
:1001B000BF93EF93FF9380910E0187FD22C090E0E3
:1001C0009C01220F331F820F931F880F991F815F9D
:1001D0009E4F0E94750080910E018F5F80930E01EB
:1001E000FF91EF91BF91AF919F918F917F916F910F
:1001F0005F914F913F912F910F900FBE0F901F90E5
:10020000189586E091E00E94750010927100E8CF89
:100210001F920F920FB60F9211242F933F934F937B
:100220005F936F937F938F939F93AF93BF93EF935E
:10023000FF9381E080930F0480E091E00E947500BD
:1002400010927100FF91EF91BF91AF919F918F91AB
:100250007F916F915F914F913F912F910F900FBEC2
:100260000F901F9018951F920F920FB60F921124A6
:100270008F939F93379A80910F04811103C082E07E
:100280008093710080918400909185009695879568
:100290009093990080939800809198009091990094
:1002A000019790939500809394001092850010928E
:1002B000840010920F0410920E019F918F910F9065
:1002C0000FBE0F901F90189585B7806885BF85BFBA
:1002D00090ED9AB980EC87B99BB988B980B3806FEB
:1002E00080BB80EF84B98AB188628AB981B38F7884
:1002F00081BB85B18F7885B983E08093810081E0EF
:1003000080936F0099E09093910020918400309148
:100310008500309399002093980092E090937100AB
:10032000909369008DBB80E48093810280E8809384
:10033000870280E280938D02E3E1F1E080E041E01A
:1003400050E0982F97709A0101C0220F9A95EAF712
:1003500020838F5F36968038A1F7809112018260EA
:0C036000809312017894FFCFF894FFCF37
:06036C000000008080800B
:00000001FF
