:100000000C94FF000C94D8010C941C010C941C015E
:100010000C941C010C941C010C941C010C941C01EC
:100020000C941C010C941C010C94FF040C943905D5
:100030000C941C010C941C010C941C010C941C01CC
:100040000C941C010C941C010C941C010C941C01BC
:100050000C94AD010C941C010C941C010C941C011B
:100060000C941C010C941C010C941C010C941C019C
:100070000C941C010C941C010C941C010C941C018C
:100080000C9473010C941C010C941C010C941C0125
:100090000C941C010C941C010C941C010C941C016C
:1000A0000C941C010C941C010C941C01B5047003ED
:1000B000AB04F304A104F5049704EB048D04ED04F0
:1000C0008304EF047904F1046F04C3046504C504D8
:1000D0005B04C7045104E1044704E3043D04E50460
:1000E0003304E7042904E9041F04D9041504DB04DC
:1000F0000B04DD040104DF04F703CB04ED03C904A2
:10010000E303F904D903F704CF03FD04C503FB049B
:10011000BB03D304B103D104A703D7049D03D504C3
:100120009303CF048903CD047F037B03770300018E
:100130000000E10112000200009E014300030000E4
:100140009A0104010309047C011C020309046601ED
:10015000140303090458010C0C033100320033006E
:10016000340035000000140354006500730074006F
:10017000420065006E006300680000001C034C0034
:10018000610075007200690020004D006900680080
:100190006B0065006C007300000004030904090291
:1001A0004300020100C03209040000010202010004
:1001B0000524001001052401010104240206052480
:1001C0000600010705820310004009040100020A2D
:1001D00000000007050302400000070584024000FC
:1001E000001201000202000010C0167A0400010192
:1001F0000203010001C11201803601813600112481
:100200001FBECFEFDAE0DEBFCDBF11E0A0E0B1E06E
:10021000E8E9FDE002C005900D92AC35B107D9F7D1
:1002200024E0ACE5B1E001C01D92A236B207E1F7CF
:100230000E9462020C94CA060C940000FC01DC01CE
:100240001396BC016A5F7F4F48E050E020E807C08A
:100250005B9A5D9A5D9826954150510951F09C91A9
:100260009223B1F75B985D9A5D98269541505109AC
:10027000B1F71196A617B70739F780E044E050E0D0
:1002800020E107C05B9A5D9A5D98220F41505109A9
:1002900051F090819223B1F75B985D9A5D98220F9F
:1002A00041505109B1F744E050E021E009C05B9AA8
:1002B000823081F05D9A5D98220F4150510929F0FA
:1002C00090819223A1F75B98F3CF8F5F31968330B3
:1002D000A9F60895283071F72F9A8F9A5D9A5D9844
:1002E0008F982F9808951F920F920FB60F92112496
:1002F0002F933F934F935F936F937F938F939F932E
:10030000AF93BF93EF93FF938091600187FF13C07A
:1003100010927100FF91EF91BF91AF919F918F91DA
:100320007F916F915F914F913F912F910F900FBEF1
:100330000F901F90189590E09C01220F331F820FA1
:10034000931F880F991F8F599E4F0E941E01809105
:1003500060018F5F80936001DDCF1F920F920FB617
:100360000F9211242F933F934F935F936F937F933B
:100370008F939F93AF93BF93EF93FF9381E080930D
:10038000610480E091E00E941E0110927100FF91D3
:10039000EF91BF91AF919F918F917F916F915F91FD
:1003A0004F913F912F910F900FBE0F901F90189576
:1003B0001F920F920FB60F9211248F939F938091EB
:1003C0006104811103C082E08093710080918400F8
:1003D00090918500969587959093990080939800C9
:1003E0008091980090919900019790939500809347
:1003F0009400109285001092840010926104109273
:1004000060019F918F910F900FBE0F901F901895D4
:10041000DC018C91882361F090E09F5F692F70E090
:10042000FD01E60FF71F20812111F7CF911101C0C7
:100430000895CD010C940903CF92DF92EF92FF92C1
:100440000F931F93CF9381E6C82E81E0D82E7601BB
:10045000C0E00E94EE028823E1F30E94C5028C01F5
:100460000F3F8FEF180749F1F70101937F01CF5F2D
:10047000C63079F7F6E0CF0ED11C81E6C81684E0CD
:10048000D80629F787E291E00E94080286E391E00E
:100490000E94080240E053E060E070E081E691E0F5
:1004A0000E94B2068CE491E0CF911F910F91FF90D2
:1004B000EF90DF90CF900C9408028DE091E00E94C5
:1004C0000802D2CF85B7806885BF85BF80ED8AB925
:1004D00080EC87B980B3806F80BB80EF84B98AB12C
:1004E00088628AB981B38F7881BB85B18F7885B9ED
:1004F00083E08093810021E020936F0089E0809366
:1005000091008091840090918500969587959093B5
:1005100099008093980082E0809371008093690035
:100520002DBB5C9A5E9A40E053E060E070E081E6AB
:1005300091E00E94A2060E94A9020E94C2028823A2
:10054000E1F378940E94EE028823E1F30E941C02FA
:10055000F9CF81E08093D70080EA8093D80082E1D0
:1005600089BD09B400FEFDCF80E98093D8001092C8
:10057000E00010925F0110925C018CE08093E20039
:100580007894089580915F0108952FB7F894809131
:100590005F018823F9F083E08093E9008091E8000F
:1005A00085FD0CC082FF16C09BE602C082FF12C010
:1005B0009093E8008091E80085FFF8CF8091F100EA
:1005C0009091E80095FD03C09BE69093E8002FBF53
:1005D00090E008952FBF8FEF9FEF08959FB7F89495
:1005E00080915F01882391F083E08093E9008091FE
:1005F000F200811109C02091E80022FF07C025FD0B
:1006000005C02BE62093E8009FBF089580E09FBFC0
:100610000895CF92DF92EF92FF921F93CF93DF93D3
:10062000DC0180915F018823B9F19FB7F89484E0E1
:100630008093E90080915D01811137C061157105DA
:1006400009F49FC134E0D0E41AE3C5E08091E400EE
:10065000875E2091E80025FF0DC02EC090915F01BC
:100660009923D1F09FB7F8943093E9002091E800E6
:1006700025FD22C09FBF9091E4009813EFCF81E049
:1006800080935D018FEFDF91CF911F91FF90EF90ED
:10069000DF90CF9008959FBF8FEFDF91CF911F9193
:1006A000FF90EF90DF90CF9008958091E80085FF54
:1006B000F2CF10925D01C2CF8091F200ED2FE81BC6
:1006C0004E2F50E06417750718F4E62FAB0155273D
:1006D000641B750BCE2ED12C81E4C816D10410F00A
:1006E000FD013EC1F601EA5AFF4F0C949C068C9125
:1006F0008093F10011968C918093F1001196FD0189
:1007000031968C918093F100DF0111968081809366
:10071000F100FD0131968C918093F100DF0111967B
:1007200080818093F100FD0131968C918093F100DE
:10073000DF01119680818093F100FD0131968C914B
:100740008093F100DF01119680818093F100FD011B
:1007500031968C918093F100DF0111968081809316
:10076000F100FD0131968C918093F100DF0111962B
:1007700080818093F100FD0131968C918093F1008E
:10078000DF01119680818093F100FD0131968C91FB
:100790008093F100DF01119680818093F100FD01CB
:1007A00031968C918093F100DF01119680818093C6
:1007B000F100FD0131968C918093F100DF011196DB
:1007C00080818093F100FD0131968C918093F1003E
:1007D000DF01119680818093F100FD0131968C91AB
:1007E0008093F100DF01119680818093F100FD017B
:1007F00031968C918093F100DF0111968081809376
:10080000F100FD0131968C918093F100DF0111968A
:1008100080818093F100FD0131968C918093F100ED
:10082000DF01119680818093F100FD0131968C915A
:100830008093F100DF01119680818093F100FD012A
:1008400031968C918093F100DF0111968081809325
:10085000F100FD0131968C918093F100DF0111963A
:1008600080818093F100FD0131968C918093F1009D
:10087000DF01119680818093F100FD0131968C910A
:100880008093F100DF01119680818093F100FD01DA
:1008900031968C918093F100DF01119680818093D5
:1008A000F100FD0131968C918093F100DF011196EA
:1008B00080818093F100FD0131968C918093F1004D
:1008C000DF01119680818093F100FD0131968C91BA
:1008D0008093F100DF01119680818093F100FD018A
:1008E00031968C918093F100DF0111968081809385
:1008F000F100FD0131968C918093F100DF0111969A
:1009000080818093F100FD0131968C918093F100FC
:10091000DF01119680818093F100FD0131968C9169
:100920008093F100DF01119680818093F100FD0139
:1009300031968C918093F100DF0111968081809334
:10094000F100FD0131968C918093F100DF01119649
:1009500080818093F100FD0131968C918093F100AC
:10096000DF01119680818093F1008091E80085FF7E
:100970001093E800C0935E019FBF6115710509F0F7
:1009800065CE80E08ACEFD01A5CFFD0199CFFD01A6
:100990008DCFFD011DCFFD0125CFFD01B5CEFD01A0
:1009A000BDCEFD01D9CEFD01E1CEFD01C1CEFD01DF
:1009B000C9CEFD013FCFFD0133CFFD0127CFFD01A2
:1009C0001BCFFD0169CFFD015DCFFD0151CFFD01C1
:1009D00045CFFD0139CFFD01A5CFFD0199CFFD0127
:1009E0008DCFFD0181CFFD01B1CFFD01A5CFFD016F
:1009F000DBCEFD01E3CEFD01C3CEFD01CBCE1F92C8
:100A00000F920FB60F9211248F939F938091E10064
:100A10001092E10083FF11C01092E90091E09093E1
:100A2000EB001092EC0092E19093ED0098E090932F
:100A3000F00010925F0110925C0182FF13C0809160
:100A40005F01882379F080915E01882359F08150FD
:100A500080935E01811106C084E08093E9008AE3FF
:100A60008093E8009F918F910F900FBE0F901F9081
:100A700018951F920F920FB60F9211242F933F9348
:100A80004F935F936F937F938F939F93AF93BF9396
:100A9000CF93EF93FF931092E9008091E80083FFDA
:100AA0003FC06091F1008091F1002091F1009091A0
:100AB000F10030E0392B4091F1009091F10050E0CD
:100AC000592B7091F100C091F10092EF9093E800E2
:100AD0008630D9F1853009F4B1C0893009F442C0BB
:100AE0008830D9F0813209F4E7C0803209F4F5C0CA
:100AF000823209F40DC18111ACC08091E80080FF01
:100B0000FCCF623809F40EC180E08093F1001092AE
:100B1000F1008EEF8093E80006C0603809F4C0C091
:100B200081E28093EB00FF91EF91CF91BF91AF9164
:100B30009F918F917F916F915F914F913F912F91F5
:100B40000F900FBE0F901F90189566E08EE291E017
:100B5000FC01A591B4912A173B0789F107966150D2
:100B6000B9F7DECF6111DCCF20935F0110925C01F9
:100B700010925E018EEF8093E80081E023EF31E078
:100B80008093E900A9014F5F5F4FF9019491909321
:100B9000EB00992309F4BAC0FA0144914093EC00A8
:100BA0003196E4912D5F3F4FE093ED008F5F8530EC
:100BB00039F78EE18093EA001092EA00B4CFFC018D
:100BC0003296A591B4914A175B0709F0C7CFFC0193
:100BD000349645915491FC0136962491872F90E0EC
:100BE0009C2B8F3F910519F010F08FEF90E082174A
:100BF00008F4282F6EEF8091E800982F9570D9F3B4
:100C000082FD91CF322F213108F47BC030E1FA010F
:100C1000832F94919093F100815031968111F9CFF7
:100C20008FEF830F90E00196480F591F231B6093AD
:100C3000E8002111E0CF3031F1F275CF8EEF8093D3
:100C4000E8008091E80080FFFCCF20682093E3005B
:100C50006ACF982F9D7F913009F062CF623009F002
:100C60005FCF232B09F05CCF4F779FEF940F943029
:100C700008F056CF9EEF9093E8004093E900833050
:100C800009F44ECF89E18093EB0081E090E001C050
:100C9000880F4A95EAF78093EA001092EA0043CF62
:100CA0008091E80080FFFCCF80915F018093F1008C
:100CB0008EEF8093E80037CF613A09F031CF809111
:100CC000E80080FFFCCFE6E0F1E081918093F10045
:100CD00081E0ED30F807C9F71CCF613209F020CF71
:100CE0008091E80082FFFCCFE6E0F1E08091F10026
:100CF000819381E0ED30F807C9F78BEF8093E8002E
:100D000008CF211184CF6093E8000DCF9A014ECF18
:100D1000613209F005CF20935C018091E80080FFEB
:100D2000FCCFF7CE4093E9008091EB0085FB88274C
:100D300080F91092E900E9CEEE0FFF1F0590F491C3
:100D4000E02D0994DC01CB01FC01F999FECF06C02E
:100D5000F2BDE1BDF89A319600B40D924150504079
:100D6000B8F70895DC01CB0103C02D910E94BD06A8
:100D700041505040D0F70895262FF999FECF1FBA61
:100D800092BD81BD20BD0FB6F894FA9AF99A0FBEB4
:080D900001960895F894FFCFCD
:100D980000000080808000E1000000000841544D00
:100DA8004547412055534220524543454956452021
:100DB8004552524F520A004461746120726563655E
:100DC800697665640A0057726974696E6720746F82
:100DD80020656570726F6D2E2E2E0A004565707243
:0C0DE8006F6D207772697474656E0A00EC
:00000001FF
